{"abi":[{"type":"function","name":"ZERO_DELTA","inputs":[],"outputs":[{"name":"","type":"int256","internalType":"BeforeSwapDelta"}],"stateMutability":"view"}],"bytecode":{"object":"0x608060405234602057600e6024565b61010661002f82393081505061010690f35b602a565b60405190565b5f80fdfe608060405260043610156011575b60cc565b60195f356026565b6391cb466903600d5760a9565b60e01c90565b60405190565b5f80fd5b5f910312603f57565b6032565b90565b90565b90565b605b6057605f926043565b6049565b6046565b90565b60695f604c565b90565b60726062565b90565b608460806088926046565b6049565b6046565b90565b6092906075565b9052565b919060a7905f60208501940190608b565b565b60b23660046036565b60c860ba606c565b60c0602c565b918291826096565b0390f35b5f80fdfea2646970667358221220bcf85f9cbe2214039ba51dcb5b8e0d7d6e5802377c804c9e15ddba938ce67e9a64736f6c634300081e0033","linkReferences":{}},"methodIdentifiers":{"ZERO_DELTA()":"91cb4669"},"id":42}