{"abi":[{"type":"function","name":"DYNAMIC_FEE_FLAG","inputs":[],"outputs":[{"name":"","type":"uint24","internalType":"uint24"}],"stateMutability":"view"},{"type":"function","name":"MAX_LP_FEE","inputs":[],"outputs":[{"name":"","type":"uint24","internalType":"uint24"}],"stateMutability":"view"},{"type":"function","name":"OVERRIDE_FEE_FLAG","inputs":[],"outputs":[{"name":"","type":"uint24","internalType":"uint24"}],"stateMutability":"view"},{"type":"function","name":"REMOVE_OVERRIDE_MASK","inputs":[],"outputs":[{"name":"","type":"uint24","internalType":"uint24"}],"stateMutability":"view"},{"type":"error","name":"LPFeeTooLarge","inputs":[{"name":"fee","type":"uint24","internalType":"uint24"}]}],"bytecode":{"object":"0x608060405234602057600e6024565b61027261002f82393081505061027290f35b602a565b60405190565b5f80fdfe60806040526004361015610013575b610238565b61001d5f3561005c565b80633b01d64d146100575780633fc48eba146100525780636f95ebcf1461004d5763f26ef49d0361000e5761020d565b6101a9565b610145565b6100e1565b60e01c90565b60405190565b5f80fd5b5f91031261007657565b610068565b90565b62ffffff1690565b90565b61009d6100986100a29261007b565b610086565b61007e565b90565b6100b162400000610089565b90565b6100bc6100a5565b90565b6100c89061007e565b9052565b91906100df905f602085019401906100bf565b565b6100ec36600461006c565b6101086100f76100b4565b6100ff610062565b918291826100cc565b0390f35b90565b61012361011e6101289261010c565b610086565b61007e565b90565b610137620f424061010f565b90565b61014261012b565b90565b61015036600461006c565b61016c61015b61013a565b610163610062565b918291826100cc565b0390f35b90565b61018761018261018c92610170565b610086565b61007e565b90565b61019b62bfffff610173565b90565b6101a661018f565b90565b6101b436600461006c565b6101d06101bf61019e565b6101c7610062565b918291826100cc565b0390f35b90565b6101eb6101e66101f0926101d4565b610086565b61007e565b90565b6101ff628000006101d7565b90565b61020a6101f3565b90565b61021836600461006c565b610234610223610202565b61022b610062565b918291826100cc565b0390f35b5f80fdfea2646970667358221220c9163b5696ef8b3b7348d4834f20ef8abef03475e1aaa7a106e78eb0129b0e8464736f6c634300081e0033","linkReferences":{}},"methodIdentifiers":{"DYNAMIC_FEE_FLAG()":"f26ef49d","MAX_LP_FEE()":"3fc48eba","OVERRIDE_FEE_FLAG()":"3b01d64d","REMOVE_OVERRIDE_MASK()":"6f95ebcf"},"id":35}