{"abi":[{"type":"constructor","inputs":[{"name":"_poolManager","type":"address","internalType":"contract IPoolManager"},{"name":"_stateView","type":"address","internalType":"contract IStateView"},{"name":"_alpha","type":"uint256","internalType":"uint256"}],"stateMutability":"nonpayable"},{"type":"function","name":"afterAddLiquidity","inputs":[{"name":"sender","type":"address","internalType":"address"},{"name":"key","type":"tuple","internalType":"struct PoolKey","components":[{"name":"currency0","type":"address","internalType":"Currency"},{"name":"currency1","type":"address","internalType":"Currency"},{"name":"fee","type":"uint24","internalType":"uint24"},{"name":"tickSpacing","type":"int24","internalType":"int24"},{"name":"hooks","type":"address","internalType":"contract IHooks"}]},{"name":"params","type":"tuple","internalType":"struct ModifyLiquidityParams","components":[{"name":"tickLower","type":"int24","internalType":"int24"},{"name":"tickUpper","type":"int24","internalType":"int24"},{"name":"liquidityDelta","type":"int256","internalType":"int256"},{"name":"salt","type":"bytes32","internalType":"bytes32"}]},{"name":"delta0","type":"int256","internalType":"BalanceDelta"},{"name":"delta1","type":"int256","internalType":"BalanceDelta"},{"name":"hookData","type":"bytes","internalType":"bytes"}],"outputs":[{"name":"","type":"bytes4","internalType":"bytes4"},{"name":"","type":"int256","internalType":"BalanceDelta"}],"stateMutability":"nonpayable"},{"type":"function","name":"afterDonate","inputs":[{"name":"sender","type":"address","internalType":"address"},{"name":"key","type":"tuple","internalType":"struct PoolKey","components":[{"name":"currency0","type":"address","internalType":"Currency"},{"name":"currency1","type":"address","internalType":"Currency"},{"name":"fee","type":"uint24","internalType":"uint24"},{"name":"tickSpacing","type":"int24","internalType":"int24"},{"name":"hooks","type":"address","internalType":"contract IHooks"}]},{"name":"amount0","type":"uint256","internalType":"uint256"},{"name":"amount1","type":"uint256","internalType":"uint256"},{"name":"hookData","type":"bytes","internalType":"bytes"}],"outputs":[{"name":"","type":"bytes4","internalType":"bytes4"}],"stateMutability":"nonpayable"},{"type":"function","name":"afterInitialize","inputs":[{"name":"sender","type":"address","internalType":"address"},{"name":"key","type":"tuple","internalType":"struct PoolKey","components":[{"name":"currency0","type":"address","internalType":"Currency"},{"name":"currency1","type":"address","internalType":"Currency"},{"name":"fee","type":"uint24","internalType":"uint24"},{"name":"tickSpacing","type":"int24","internalType":"int24"},{"name":"hooks","type":"address","internalType":"contract IHooks"}]},{"name":"sqrtPriceX96","type":"uint160","internalType":"uint160"},{"name":"tick","type":"int24","internalType":"int24"}],"outputs":[{"name":"","type":"bytes4","internalType":"bytes4"}],"stateMutability":"nonpayable"},{"type":"function","name":"afterRemoveLiquidity","inputs":[{"name":"sender","type":"address","internalType":"address"},{"name":"key","type":"tuple","internalType":"struct PoolKey","components":[{"name":"currency0","type":"address","internalType":"Currency"},{"name":"currency1","type":"address","internalType":"Currency"},{"name":"fee","type":"uint24","internalType":"uint24"},{"name":"tickSpacing","type":"int24","internalType":"int24"},{"name":"hooks","type":"address","internalType":"contract IHooks"}]},{"name":"params","type":"tuple","internalType":"struct ModifyLiquidityParams","components":[{"name":"tickLower","type":"int24","internalType":"int24"},{"name":"tickUpper","type":"int24","internalType":"int24"},{"name":"liquidityDelta","type":"int256","internalType":"int256"},{"name":"salt","type":"bytes32","internalType":"bytes32"}]},{"name":"delta0","type":"int256","internalType":"BalanceDelta"},{"name":"delta1","type":"int256","internalType":"BalanceDelta"},{"name":"hookData","type":"bytes","internalType":"bytes"}],"outputs":[{"name":"","type":"bytes4","internalType":"bytes4"},{"name":"","type":"int256","internalType":"BalanceDelta"}],"stateMutability":"nonpayable"},{"type":"function","name":"afterSwap","inputs":[{"name":"sender","type":"address","internalType":"address"},{"name":"key","type":"tuple","internalType":"struct PoolKey","components":[{"name":"currency0","type":"address","internalType":"Currency"},{"name":"currency1","type":"address","internalType":"Currency"},{"name":"fee","type":"uint24","internalType":"uint24"},{"name":"tickSpacing","type":"int24","internalType":"int24"},{"name":"hooks","type":"address","internalType":"contract IHooks"}]},{"name":"params","type":"tuple","internalType":"struct SwapParams","components":[{"name":"zeroForOne","type":"bool","internalType":"bool"},{"name":"amountSpecified","type":"int256","internalType":"int256"},{"name":"sqrtPriceLimitX96","type":"uint160","internalType":"uint160"}]},{"name":"delta","type":"int256","internalType":"BalanceDelta"},{"name":"hookData","type":"bytes","internalType":"bytes"}],"outputs":[{"name":"","type":"bytes4","internalType":"bytes4"},{"name":"","type":"int128","internalType":"int128"}],"stateMutability":"nonpayable"},{"type":"function","name":"alpha","inputs":[],"outputs":[{"name":"","type":"uint256","internalType":"uint256"}],"stateMutability":"view"},{"type":"function","name":"beforeAddLiquidity","inputs":[{"name":"sender","type":"address","internalType":"address"},{"name":"key","type":"tuple","internalType":"struct PoolKey","components":[{"name":"currency0","type":"address","internalType":"Currency"},{"name":"currency1","type":"address","internalType":"Currency"},{"name":"fee","type":"uint24","internalType":"uint24"},{"name":"tickSpacing","type":"int24","internalType":"int24"},{"name":"hooks","type":"address","internalType":"contract IHooks"}]},{"name":"params","type":"tuple","internalType":"struct ModifyLiquidityParams","components":[{"name":"tickLower","type":"int24","internalType":"int24"},{"name":"tickUpper","type":"int24","internalType":"int24"},{"name":"liquidityDelta","type":"int256","internalType":"int256"},{"name":"salt","type":"bytes32","internalType":"bytes32"}]},{"name":"hookData","type":"bytes","internalType":"bytes"}],"outputs":[{"name":"","type":"bytes4","internalType":"bytes4"}],"stateMutability":"nonpayable"},{"type":"function","name":"beforeDonate","inputs":[{"name":"sender","type":"address","internalType":"address"},{"name":"key","type":"tuple","internalType":"struct PoolKey","components":[{"name":"currency0","type":"address","internalType":"Currency"},{"name":"currency1","type":"address","internalType":"Currency"},{"name":"fee","type":"uint24","internalType":"uint24"},{"name":"tickSpacing","type":"int24","internalType":"int24"},{"name":"hooks","type":"address","internalType":"contract IHooks"}]},{"name":"amount0","type":"uint256","internalType":"uint256"},{"name":"amount1","type":"uint256","internalType":"uint256"},{"name":"hookData","type":"bytes","internalType":"bytes"}],"outputs":[{"name":"","type":"bytes4","internalType":"bytes4"}],"stateMutability":"nonpayable"},{"type":"function","name":"beforeInitialize","inputs":[{"name":"sender","type":"address","internalType":"address"},{"name":"key","type":"tuple","internalType":"struct PoolKey","components":[{"name":"currency0","type":"address","internalType":"Currency"},{"name":"currency1","type":"address","internalType":"Currency"},{"name":"fee","type":"uint24","internalType":"uint24"},{"name":"tickSpacing","type":"int24","internalType":"int24"},{"name":"hooks","type":"address","internalType":"contract IHooks"}]},{"name":"sqrtPriceX96","type":"uint160","internalType":"uint160"}],"outputs":[{"name":"","type":"bytes4","internalType":"bytes4"}],"stateMutability":"nonpayable"},{"type":"function","name":"beforeRemoveLiquidity","inputs":[{"name":"sender","type":"address","internalType":"address"},{"name":"key","type":"tuple","internalType":"struct PoolKey","components":[{"name":"currency0","type":"address","internalType":"Currency"},{"name":"currency1","type":"address","internalType":"Currency"},{"name":"fee","type":"uint24","internalType":"uint24"},{"name":"tickSpacing","type":"int24","internalType":"int24"},{"name":"hooks","type":"address","internalType":"contract IHooks"}]},{"name":"params","type":"tuple","internalType":"struct ModifyLiquidityParams","components":[{"name":"tickLower","type":"int24","internalType":"int24"},{"name":"tickUpper","type":"int24","internalType":"int24"},{"name":"liquidityDelta","type":"int256","internalType":"int256"},{"name":"salt","type":"bytes32","internalType":"bytes32"}]},{"name":"hookData","type":"bytes","internalType":"bytes"}],"outputs":[{"name":"","type":"bytes4","internalType":"bytes4"}],"stateMutability":"nonpayable"},{"type":"function","name":"beforeSwap","inputs":[{"name":"sender","type":"address","internalType":"address"},{"name":"key","type":"tuple","internalType":"struct PoolKey","components":[{"name":"currency0","type":"address","internalType":"Currency"},{"name":"currency1","type":"address","internalType":"Currency"},{"name":"fee","type":"uint24","internalType":"uint24"},{"name":"tickSpacing","type":"int24","internalType":"int24"},{"name":"hooks","type":"address","internalType":"contract IHooks"}]},{"name":"params","type":"tuple","internalType":"struct SwapParams","components":[{"name":"zeroForOne","type":"bool","internalType":"bool"},{"name":"amountSpecified","type":"int256","internalType":"int256"},{"name":"sqrtPriceLimitX96","type":"uint160","internalType":"uint160"}]},{"name":"hookData","type":"bytes","internalType":"bytes"}],"outputs":[{"name":"","type":"bytes4","internalType":"bytes4"},{"name":"","type":"int256","internalType":"BeforeSwapDelta"},{"name":"","type":"uint24","internalType":"uint24"}],"stateMutability":"nonpayable"},{"type":"function","name":"computeFees","inputs":[{"name":"volume1","type":"int256","internalType":"int256"},{"name":"alpha","type":"uint256","internalType":"uint256"},{"name":"activeLiq","type":"uint256","internalType":"uint256"},{"name":"initialSqrtprice_","type":"uint256","internalType":"uint256"},{"name":"extremumSqrtprice_","type":"uint256","internalType":"uint256"},{"name":"currentSqrtPrice","type":"uint256","internalType":"uint256"}],"outputs":[{"name":"","type":"uint256","internalType":"uint256"}],"stateMutability":"pure"},{"type":"function","name":"extremumSqrtprice","inputs":[],"outputs":[{"name":"","type":"uint256","internalType":"uint256"}],"stateMutability":"view"},{"type":"function","name":"getHookPermissions","inputs":[],"outputs":[{"name":"permissions","type":"tuple","internalType":"struct Hooks.Permissions","components":[{"name":"beforeInitialize","type":"bool","internalType":"bool"},{"name":"afterInitialize","type":"bool","internalType":"bool"},{"name":"beforeAddLiquidity","type":"bool","internalType":"bool"},{"name":"afterAddLiquidity","type":"bool","internalType":"bool"},{"name":"beforeRemoveLiquidity","type":"bool","internalType":"bool"},{"name":"afterRemoveLiquidity","type":"bool","internalType":"bool"},{"name":"beforeSwap","type":"bool","internalType":"bool"},{"name":"afterSwap","type":"bool","internalType":"bool"},{"name":"beforeDonate","type":"bool","internalType":"bool"},{"name":"afterDonate","type":"bool","internalType":"bool"},{"name":"beforeSwapReturnDelta","type":"bool","internalType":"bool"},{"name":"afterSwapReturnDelta","type":"bool","internalType":"bool"},{"name":"afterAddLiquidityReturnDelta","type":"bool","internalType":"bool"},{"name":"afterRemoveLiquidityReturnDelta","type":"bool","internalType":"bool"}]}],"stateMutability":"pure"},{"type":"function","name":"initialSqrtprice","inputs":[],"outputs":[{"name":"","type":"uint256","internalType":"uint256"}],"stateMutability":"view"},{"type":"function","name":"poolManager","inputs":[],"outputs":[{"name":"","type":"address","internalType":"contract IPoolManager"}],"stateMutability":"view"},{"type":"function","name":"stateView","inputs":[],"outputs":[{"name":"","type":"address","internalType":"contract IStateView"}],"stateMutability":"view"},{"type":"error","name":"HookNotImplemented","inputs":[]},{"type":"error","name":"InvalidPool","inputs":[]},{"type":"error","name":"MustUseDynamicFee","inputs":[]},{"type":"error","name":"NotPoolManager","inputs":[]},{"type":"error","name":"NotSelf","inputs":[]}],"bytecode":{"object":"0x60c0604052346100885761001a6100146101ca565b91610267565b61002261008d565b611bce610b3b8239608051818181610a7501528181610ba401528181610c1e01528181610ca001528181610d3101528181610db901528181610e3101528181610ebd01528181610f430152818161150f015261159f015260a05181610a1c0152611bce90f35b610093565b60405190565b5f80fd5b601f801991011690565b634e487b7160e01b5f52604160045260245ffd5b906100bf90610097565b810190811060018060401b038211176100d757604052565b6100a1565b906100ef6100e861008d565b92836100b5565b565b5f80fd5b60018060a01b031690565b610109906100f5565b90565b61011590610100565b90565b6101218161010c565b0361012857565b5f80fd5b9050519061013982610118565b565b61014490610100565b90565b6101508161013b565b0361015757565b5f80fd5b9050519061016882610147565b565b90565b6101768161016a565b0361017d57565b5f80fd5b9050519061018e8261016d565b565b90916060828403126101c5576101c26101ab845f850161012c565b936101b9816020860161015b565b93604001610181565b90565b6100f1565b6101e8612709803803806101dd816100dc565b928339810190610190565b909192565b5f1b90565b9061020360018060a01b03916101ed565b9181191691161790565b90565b61022461021f610229926100f5565b61020d565b6100f5565b90565b61023590610210565b90565b6102419061022c565b90565b90565b9061025c61025761026392610238565b610244565b82546101f2565b9055565b9161027461027e93610280565b60a0526002610247565b565b6102899061028b565b565b608052610297306102b1565b565b6102a290610210565b90565b6102ae90610299565b90565b6102cb906102c66102c06103c2565b916102a5565b610749565b565b6102d86101c06100dc565b90565b5f90565b602090818080808080808080808080806102f76102cd565b9e8f6103016102db565b81520161030c6102db565b8152016103176102db565b8152016103226102db565b81520161032d6102db565b8152016103386102db565b8152016103436102db565b81520161034e6102db565b8152016103596102db565b8152016103646102db565b81520161036f6102db565b81520161037a6102db565b8152016103856102db565b8152016103906102db565b81525050565b61039e6102df565b90565b6103ac6101c06100dc565b90565b151590565b906103be906103af565b9052565b6103ca610396565b5060015f5f5f5f5f60015f5f915f935f955f975f995f9b6103e96103a1565b809e5f8201906103f8916103b4565b60200190610405916103b4565b60408d0190610413916103b4565b60608c0190610421916103b4565b60808b019061042f916103b4565b60a08a019061043d916103b4565b60c089019061044b916103b4565b60e0880190610459916103b4565b610100870190610468916103b4565b610120860190610477916103b4565b610140850190610486916103b4565b610160840190610495916103b4565b6101808301906104a4916103b4565b6101a08201906104b3916103b4565b90565b6104c090516103af565b90565b90565b6104da6104d56104df926104c3565b61020d565b6100f5565b90565b6104ed6120006104c6565b90565b90565b61050761050261050c926104f0565b61020d565b6100f5565b90565b61051a6110006104f3565b90565b90565b61053461052f6105399261051d565b61020d565b6100f5565b90565b610547610800610520565b90565b90565b61056161055c6105669261054a565b61020d565b6100f5565b90565b61057461040061054d565b90565b90565b61058e61058961059392610577565b61020d565b6100f5565b90565b6105a161020061057a565b90565b90565b6105bb6105b66105c0926105a4565b61020d565b6100f5565b90565b6105ce6101006105a7565b90565b90565b6105e86105e36105ed926105d1565b61020d565b6100f5565b90565b6105fa60806105d4565b90565b90565b61061461060f610619926105fd565b61020d565b6100f5565b90565b6106266040610600565b90565b90565b61064061063b61064592610629565b61020d565b6100f5565b90565b610652602061062c565b90565b90565b61066c61066761067192610655565b61020d565b6100f5565b90565b61067e6010610658565b90565b90565b61069861069361069d92610681565b61020d565b6100f5565b90565b6106aa6008610684565b90565b90565b6106c46106bf6106c9926106ad565b61020d565b6100f5565b90565b6106d660046106b0565b90565b90565b6106f06106eb6106f5926106d9565b61020d565b6100f5565b90565b61070260026106dc565b90565b90565b61071c61071761072192610705565b61020d565b6100f5565b90565b61072e6001610708565b90565b61073a90610210565b90565b61074690610731565b90565b906107555f82016104b6565b61077861077261076d856107676104e2565b90610af6565b6103af565b916103af565b14158015610a90575b8015610a59575b8015610a22575b80156109eb575b80156109b4575b801561097d575b8015610946575b801561090e575b80156108d6575b801561089e575b8015610866575b801561082e575b9081156107f5575b506107de5750565b6107ef630732d7b560e51b9161073d565b90610b28565b61080391506101a0016104b6565b61082661082061081b84610815610724565b90610af6565b6103af565b916103af565b14155f6107d6565b5061083c61018082016104b6565b61085f6108596108548561084e6106f8565b90610af6565b6103af565b916103af565b14156107ce565b5061087461016082016104b6565b61089761089161088c856108866106cc565b90610af6565b6103af565b916103af565b14156107c7565b506108ac61014082016104b6565b6108cf6108c96108c4856108be6106a0565b90610af6565b6103af565b916103af565b14156107c0565b506108e461012082016104b6565b6109076109016108fc856108f6610674565b90610af6565b6103af565b916103af565b14156107b9565b5061091c61010082016104b6565b61093f6109396109348561092e610648565b90610af6565b6103af565b916103af565b14156107b2565b5061095360e082016104b6565b61097661097061096b8561096561061c565b90610af6565b6103af565b916103af565b14156107ab565b5061098a60c082016104b6565b6109ad6109a76109a28561099c6105f0565b90610af6565b6103af565b916103af565b14156107a4565b506109c160a082016104b6565b6109e46109de6109d9856109d36105c3565b90610af6565b6103af565b916103af565b141561079d565b506109f8608082016104b6565b610a1b610a15610a1085610a0a610596565b90610af6565b6103af565b916103af565b1415610796565b50610a2f606082016104b6565b610a52610a4c610a4785610a41610569565b90610af6565b6103af565b916103af565b141561078f565b50610a66604082016104b6565b610a89610a83610a7e85610a7861053c565b90610af6565b6103af565b916103af565b1415610788565b50610a9d602082016104b6565b610ac0610aba610ab585610aaf61050f565b90610af6565b6103af565b916103af565b1415610781565b5f90565b610ad490610210565b90565b90565b610aee610ae9610af392610ad7565b61020d565b6100f5565b90565b610b0b610b1091610b05610ac7565b5061073d565b610acb565b16610b23610b1d5f610ada565b916100f5565b141590565b5f5260018060a01b031660045260245ffdfe60806040526004361015610013575b610b8b565b61001d5f3561012c565b806321d0ee7014610127578063259982e5146101225780634c4a3c251461011d578063575e24b4146101185780636c2bbe7e146101135780636fe7e6eb1461010e5780638fd19a9a146101095780639f063efc14610104578063b47b2fb1146100ff578063b6a8b0fa146100fa578063bcd08238146100f5578063bff5984d146100f0578063c4e833ce146100eb578063db1d0fd5146100e6578063dc4c90d3146100e1578063dc98354e146100dc5763e1b4af690361000e57610b6a565b610b34565b610ac5565b610a3e565b6109e5565b610881565b610837565b61078f565b6106d9565b610645565b610610565b610595565b6104e1565b610420565b61036b565b6102a1565b610283565b60e01c90565b60405190565b5f80fd5b5f80fd5b5f80fd5b60018060a01b031690565b61015890610144565b90565b6101648161014f565b0361016b57565b5f80fd5b9050359061017c8261015b565b565b5f80fd5b908160a09103126101905790565b61017e565b908160809103126101a35790565b61017e565b5f80fd5b5f80fd5b5f80fd5b909182601f830112156101ee5781359167ffffffffffffffff83116101e95760200192600183028401116101e457565b6101b0565b6101ac565b6101a8565b90610160828203126102505761020b815f840161016f565b926102198260208501610182565b926102278360c08301610195565b9261014082013567ffffffffffffffff811161024b5761024792016101b4565b9091565b610140565b61013c565b63ffffffff60e01b1690565b61026a90610255565b9052565b9190610281905f60208501940190610261565b565b3461029c576102933660046101f3565b93929092610c05565b610138565b346102ba576102b13660046101f3565b93929092610c7f565b610138565b5f9103126102c957565b61013c565b1c90565b60018060a01b031690565b6102ed9060086102f293026102ce565b6102d2565b90565b9061030091546102dd565b90565b61030f60025f906102f5565b90565b90565b61032961032461032e92610144565b610312565b610144565b90565b61033a90610315565b90565b61034690610331565b90565b6103529061033d565b9052565b9190610369905f60208501940190610349565b565b3461039b5761037b3660046102bf565b610397610386610303565b61038e610132565b91829182610356565b0390f35b610138565b908160609103126103ae5790565b61017e565b9061014082820312610410576103cb815f840161016f565b926103d98260208501610182565b926103e78360c083016103a0565b9261012082013567ffffffffffffffff811161040b5761040792016101b4565b9091565b610140565b61013c565b90565b62ffffff1690565b34610439576104303660046103b3565b93929092610d03565b610138565b61044781610415565b0361044e57565b5f80fd5b9050359061045f8261043e565b565b916101a0838303126104dc57610479825f850161016f565b926104878360208301610182565b926104958160c08401610195565b926104a4826101408501610452565b926104b3836101608301610452565b9261018082013567ffffffffffffffff81116104d7576104d392016101b4565b9091565b610140565b61013c565b346104fd576104f1366004610461565b95949094939193610d97565b610138565b61050b81610144565b0361051257565b5f80fd5b9050359061052382610502565b565b60020b90565b61053481610525565b0361053b57565b5f80fd5b9050359061054c8261052b565b565b6101008183031261059057610565825f830161016f565b9261058d6105768460208501610182565b936105848160c08601610516565b9360e00161053f565b90565b61013c565b346105ae576105a536600461054e565b92919091610e18565b610138565b90565b6105c69060086105cb93026102ce565b6105b3565b90565b906105d991546105b6565b90565b6105e860015f906105ce565b90565b90565b6105f7906105eb565b9052565b919061060e905f602085019401906105ee565b565b34610640576106203660046102bf565b61063c61062b6105dc565b610633610132565b918291826105fb565b0390f35b610138565b3461066157610655366004610461565b95949094939193610e97565b610138565b919091610160818403126106d457610680835f830161016f565b9261068e8160208401610182565b9261069c8260c085016103a0565b926106ab836101208301610452565b9261014082013567ffffffffffffffff81116106cf576106cb92016101b4565b9091565b610140565b61013c565b346106f5576106e9366004610666565b94939093929192610f21565b610138565b610703816105eb565b0361070a57565b5f80fd5b9050359061071b826106fa565b565b9190916101208184031261078a57610737835f830161016f565b926107458160208401610182565b926107538260c0850161070e565b926107618360e0830161070e565b9261010082013567ffffffffffffffff81116107855761078192016101b4565b9091565b610140565b61013c565b346107ab5761079f36600461071d565b94939093929192610fa6565b610138565b6107b981610415565b036107c057565b5f80fd5b905035906107d1826107b0565b565b909160c082840312610832576107eb835f84016107c4565b926107f9816020850161070e565b92610807826040830161070e565b9261082f610818846060850161070e565b93610826816080860161070e565b9360a00161070e565b90565b61013c565b3461086e5761086a61085961084d3660046107d3565b9493909392919261112b565b610861610132565b918291826105fb565b0390f35b610138565b61087e5f5f906105ce565b90565b346108b1576108913660046102bf565b6108ad61089c610873565b6108a4610132565b918291826105fb565b0390f35b610138565b151590565b6108c4906108b6565b9052565b906101a0806109cd936108e15f8201515f8601906108bb565b6108f3602082015160208601906108bb565b610905604082015160408601906108bb565b610917606082015160608601906108bb565b610929608082015160808601906108bb565b61093b60a082015160a08601906108bb565b61094d60c082015160c08601906108bb565b61095f60e082015160e08601906108bb565b6109736101008201516101008601906108bb565b6109876101208201516101208601906108bb565b61099b6101408201516101408601906108bb565b6109af6101608201516101608601906108bb565b6109c36101808201516101808601906108bb565b01519101906108bb565b565b91906109e3905f6101c085019401906108c8565b565b34610a15576109f53660046102bf565b610a11610a0061140c565b610a08610132565b918291826109cf565b0390f35b610138565b7f000000000000000000000000000000000000000000000000000000000000000090565b34610a6e57610a4e3660046102bf565b610a6a610a59610a1a565b610a61610132565b918291826105fb565b0390f35b610138565b7f000000000000000000000000000000000000000000000000000000000000000090565b610aa090610331565b90565b610aac90610a97565b9052565b9190610ac3905f60208501940190610aa3565b565b34610af557610ad53660046102bf565b610af1610ae0610a73565b610ae8610132565b91829182610ab0565b0390f35b610138565b909160e082840312610b2f57610b2c610b15845f850161016f565b93610b238160208601610182565b9360c001610516565b90565b61013c565b34610b6557610b61610b50610b4a366004610afa565b9161157d565b610b58610132565b9182918261026e565b0390f35b610138565b34610b8657610b7a36600461071d565b94939093929192611602565b610138565b5f80fd5b5f90565b5f0190565b33610bd3610bcd610bc87f0000000000000000000000000000000000000000000000000000000000000000610a97565b61014f565b9161014f565b0315610bf5575f63570c108560e11b815280610bf160048201610b93565b0390fd5b949392919450939091929361160f565b610c0d610b8f565b610b98565b33610c4d610c47610c427f0000000000000000000000000000000000000000000000000000000000000000610a97565b61014f565b9161014f565b0315610c6f575f63570c108560e11b815280610c6b60048201610b93565b0390fd5b9493929194509390919293611634565b610c87610b8f565b610c12565b5f90565b5f90565b33610ccf610cc9610cc47f0000000000000000000000000000000000000000000000000000000000000000610a97565b61014f565b9161014f565b0315610cf1575f63570c108560e11b815280610ced60048201610b93565b0390fd5b96959493965050509390919293611851565b610d0b610b8f565b610d13610c8c565b610d1b610c90565b91610c94565b5f90565b33610d60610d5a610d557f0000000000000000000000000000000000000000000000000000000000000000610a97565b61014f565b9161014f565b0315610d82575f63570c108560e11b815280610d7e60048201610b93565b0390fd5b97969594939297505095909192939495611917565b610d9f610b8f565b610da7610d21565b90610d25565b33610de8610de2610ddd7f0000000000000000000000000000000000000000000000000000000000000000610a97565b61014f565b9161014f565b0315610e0a575f63570c108560e11b815280610e0660048201610b93565b0390fd5b939291935092909192611945565b610e20610b8f565b610dad565b33610e60610e5a610e557f0000000000000000000000000000000000000000000000000000000000000000610a97565b61014f565b9161014f565b0315610e82575f63570c108560e11b815280610e7e60048201610b93565b0390fd5b9796959493929750509590919293949561196a565b610e9f610b8f565b610ea7610d21565b90610e25565b5f90565b33610eec610ee6610ee17f0000000000000000000000000000000000000000000000000000000000000000610a97565b61014f565b9161014f565b0315610f0e575f63570c108560e11b815280610f0a60048201610b93565b0390fd5b9695949392965050949091929394611998565b610f29610b8f565b610f31610ead565b90610eb1565b33610f72610f6c610f677f0000000000000000000000000000000000000000000000000000000000000000610a97565b61014f565b9161014f565b0315610f94575f63570c108560e11b815280610f9060048201610b93565b0390fd5b959493929195509490919293946119c6565b610fae610b8f565b610f37565b5f90565b90565b610fce610fc9610fd392610fb7565b610312565b610415565b90565b634e487b7160e01b5f52601160045260245ffd5b610ff9610fff919392936105eb565b926105eb565b820391821161100a57565b610fd6565b61101890610415565b600160ff1b8114611028575f0390565b610fd6565b61104161103c61104692610415565b610312565b6105eb565b90565b90565b61106061105b61106592611049565b610312565b6105eb565b90565b611079670de0b6b3a764000061104c565b90565b61108b611091919392936105eb565b926105eb565b9161109d8382026105eb565b9281840414901517156110ac57565b610fd6565b90565b6110c86110c36110cd926110b1565b610312565b6105eb565b90565b634e487b7160e01b5f52601260045260245ffd5b6110f06110f6916105eb565b916105eb565b908115611101570490565b6110d0565b61111561111b919392936105eb565b926105eb565b820180921161112657565b610fd6565b6111fd6111ef61120393946111e96111d96111cb6112099961120e9c9b611150610fb3565b50611159610fb3565b508061116d611167846105eb565b916105eb565b11806112a6575b801561126c575b5f1461122e57508b61119661119083926105eb565b916105eb565b115f1461121f576111a8908c90610fea565b5b965b806111be6111b85f610fba565b91610415565b135f14611211575b61102d565b6111d3611068565b9061107c565b916111e460026110b4565b61107c565b906110e4565b916111f8611068565b61107c565b90611106565b9061107c565b6110e4565b90565b61121a9061100f565b6111c6565b611229908c610fea565b6111a9565b90508b61124461123e83926105eb565b916105eb565b115f1461125d57611256908c90610fea565b5b966111ab565b611267908c610fea565b611257565b508061128061127a846105eb565b916105eb565b108061128c575b61117b565b50886112a061129a5f610fba565b91610415565b12611287565b50886112ba6112b45f610fba565b91610415565b13611174565b601f801991011690565b634e487b7160e01b5f52604160045260245ffd5b906112e8906112c0565b810190811067ffffffffffffffff82111761130257604052565b6112ca565b9061131a611313610132565b92836112de565b565b6113276101c0611307565b90565b5f90565b6020908180808080808080808080808061134661131c565b9e8f61135061132a565b81520161135b61132a565b81520161136661132a565b81520161137161132a565b81520161137c61132a565b81520161138761132a565b81520161139261132a565b81520161139d61132a565b8152016113a861132a565b8152016113b361132a565b8152016113be61132a565b8152016113c961132a565b8152016113d461132a565b8152016113df61132a565b81525050565b6113ed61132e565b90565b6113fb6101c0611307565b90565b90611408906108b6565b9052565b6114146113e5565b5060015f5f5f5f5f60015f5f915f935f955f975f995f9b6114336113f0565b809e5f820190611442916113fe565b6020019061144f916113fe565b60408d019061145d916113fe565b60608c019061146b916113fe565b60808b0190611479916113fe565b60a08a0190611487916113fe565b60c0890190611495916113fe565b60e08801906114a3916113fe565b6101008701906114b2916113fe565b6101208601906114c1916113fe565b6101408501906114d0916113fe565b6101608401906114df916113fe565b6101808301906114ee916113fe565b6101a08201906114fd916113fe565b90565b9291903361153e6115386115337f0000000000000000000000000000000000000000000000000000000000000000610a97565b61014f565b9161014f565b0361154f5761154c9361156b565b90565b5f63570c108560e11b81528061156760048201610b93565b0390fd5b9061157a939150919091611a1d565b90565b90611590929161158b610b8f565b611500565b90565b336115ce6115c86115c37f0000000000000000000000000000000000000000000000000000000000000000610a97565b61014f565b9161014f565b03156115f0575f63570c108560e11b8152806115ec60048201610b93565b0390fd5b95949392919550949091929394611a76565b61160a610b8f565b611593565b611617610b8f565b505f630a85dc2960e01b81528061163060048201610b93565b0390fd5b61163c610b8f565b505f630a85dc2960e01b81528061165560048201610b93565b0390fd5b5f80fd5b6116668161014f565b0361166d57565b5f80fd5b9050359061167e8261165d565b565b61168981610418565b0361169057565b5f80fd5b905035906116a182611680565b565b6116ac9061014f565b90565b6116b8816116a3565b036116bf57565b5f80fd5b905035906116d0826116af565b565b919060a0838203126117425761173b906116ec60a0611307565b936116f9825f8301611671565b5f86015261170a8260208301611671565b602086015261171c8260408301611694565b604086015261172e826060830161053f565b60608601526080016116c3565b6080830152565b611659565b6117529036906116d2565b90565b5f1c90565b61176661176b91611755565b6102d2565b90565b611778905461175a565b90565b60e01b90565b9050519061178e82610502565b565b9050519061179d8261052b565b565b905051906117ac82611680565b565b6080818303126117ef576117c4825f8301611781565b926117ec6117d58460208501611790565b936117e3816040860161179f565b9360600161179f565b90565b61013c565b90565b611800906117f4565b90565b61180c906117f7565b9052565b9190611823905f60208501940190611803565b565b61182d610132565b3d5f823e3d90fd5b61184961184461184e92610144565b610312565b6105eb565b90565b506118c293506080925061188991506118849061186c610b8f565b50611875610c8c565b5061187e610c90565b50611747565b611a9f565b61189b611896600261176e565b61033d565b6118b763c815641c6118ab610132565b9586948593849361177b565b835260048301611810565b03915afa8015611912576118dd915f916118e3575b50611835565b50611b15565b611904915060803d811161190b575b6118fc81836112de565b8101906117ae565b50506118d7565b503d6118f2565b611825565b61191f610b8f565b50611928610d21565b505f630a85dc2960e01b81528061194160048201610b93565b0390fd5b61194d610b8f565b505f630a85dc2960e01b81528061196660048201610b93565b0390fd5b611972610b8f565b5061197b610d21565b505f630a85dc2960e01b81528061199460048201610b93565b0390fd5b6119a0610b8f565b506119a9610ead565b505f630a85dc2960e01b8152806119c260048201610b93565b0390fd5b6119ce610b8f565b505f630a85dc2960e01b8152806119e760048201610b93565b0390fd5b356119f581611680565b90565b63ffffffff1690565b611a15611a10611a1a926119f8565b61177b565b610255565b90565b50611a469150611a3b6040611a4092611a34610b8f565b50016119eb565b611b72565b156108b6565b611a5a57611a5763dc98354e611a01565b90565b5f6315b3d69f60e31b815280611a7260048201610b93565b0390fd5b611a7e610b8f565b505f630a85dc2960e01b815280611a9760048201610b93565b0390fd5b5f90565b60a090611aaa611a9b565b502090565b5f90565b60209181520190565b5f7f746f646f3a20707265436f6d70757465566f6c756d6531000000000000000000910152565b611af06017602092611ab3565b611af981611abc565b0190565b611b129060208101905f818303910152611ae3565b90565b611b1d611aaf565b50611b26610132565b62461bcd60e51b815280611b3c60048201611afd565b0390fd5b5f90565b90565b611b5b611b56611b6092611b44565b610312565b610418565b90565b611b6f62800000611b47565b90565b611b7a611b40565b50611b94611b8e611b89611b63565b610418565b91610418565b149056fea264697066735822122002c33da34d4eb2dd99ea05f8b6894f8911a674662974e8df1cfcb279d3a2951164736f6c634300081e0033","linkReferences":{}},"methodIdentifiers":{"afterAddLiquidity(address,(address,address,uint24,int24,address),(int24,int24,int256,bytes32),int256,int256,bytes)":"9f063efc","afterDonate(address,(address,address,uint24,int24,address),uint256,uint256,bytes)":"e1b4af69","afterInitialize(address,(address,address,uint24,int24,address),uint160,int24)":"6fe7e6eb","afterRemoveLiquidity(address,(address,address,uint24,int24,address),(int24,int24,int256,bytes32),int256,int256,bytes)":"6c2bbe7e","afterSwap(address,(address,address,uint24,int24,address),(bool,int256,uint160),int256,bytes)":"b47b2fb1","alpha()":"db1d0fd5","beforeAddLiquidity(address,(address,address,uint24,int24,address),(int24,int24,int256,bytes32),bytes)":"259982e5","beforeDonate(address,(address,address,uint24,int24,address),uint256,uint256,bytes)":"b6a8b0fa","beforeInitialize(address,(address,address,uint24,int24,address),uint160)":"dc98354e","beforeRemoveLiquidity(address,(address,address,uint24,int24,address),(int24,int24,int256,bytes32),bytes)":"21d0ee70","beforeSwap(address,(address,address,uint24,int24,address),(bool,int256,uint160),bytes)":"575e24b4","computeFees(int256,uint256,uint256,uint256,uint256,uint256)":"bcd08238","extremumSqrtprice()":"8fd19a9a","getHookPermissions()":"c4e833ce","initialSqrtprice()":"bff5984d","poolManager()":"dc4c90d3","stateView()":"4c4a3c25"},"id":63}