{"abi":[{"type":"function","name":"ADDRESS_ZERO","inputs":[],"outputs":[{"name":"","type":"address","internalType":"Currency"}],"stateMutability":"view"},{"type":"error","name":"ERC20TransferFailed","inputs":[]},{"type":"error","name":"NativeTransferFailed","inputs":[]}],"bytecode":{"object":"0x608060405234602057600e6024565b61013261002f82393081505061013290f35b602a565b60405190565b5f80fdfe608060405260043610156011575b60f8565b60195f356026565b6366e7950903600d5760d5565b60e01c90565b60405190565b5f80fd5b5f910312603f57565b6032565b90565b60018060a01b031690565b90565b6063605f6067926043565b6051565b6046565b90565b6071906054565b90565b6083607f6087926046565b6051565b6046565b90565b6091906074565b90565b609b90608a565b90565b60ab60a75f606a565b6094565b90565b60b4609e565b90565b60be906094565b9052565b919060d3905f6020850194019060b7565b565b60de3660046036565b60f460e660ae565b60ec602c565b9182918260c2565b0390f35b5f80fdfea2646970667358221220f8e0cf92537a55ed40e045ffed89536c72abc5e2296b58cc2b2d16e222b5223f64736f6c634300081e0033","linkReferences":{}},"methodIdentifiers":{"ADDRESS_ZERO()":"66e79509"},"id":43}