{"abi":[{"type":"function","name":"computeFees","inputs":[{"name":"volume1","type":"int256","internalType":"int256"},{"name":"alpha","type":"uint256","internalType":"uint256"},{"name":"activeLiq","type":"uint256","internalType":"uint256"},{"name":"initialSqrtprice_","type":"uint256","internalType":"uint256"},{"name":"extremumSqrtprice_","type":"uint256","internalType":"uint256"},{"name":"currentSqrtPrice","type":"uint256","internalType":"uint256"}],"outputs":[{"name":"","type":"uint256","internalType":"uint256"}],"stateMutability":"pure"}],"bytecode":{"object":"0x608060405234601c57600e6020565b61049861002b823961049890f35b6026565b60405190565b5f80fdfe60806040526004361015610013575b61014e565b61001d5f3561002c565b63bcd082380361000e57610112565b60e01c90565b60405190565b5f80fd5b5f80fd5b90565b61004c81610040565b0361005357565b5f80fd5b9050359061006482610043565b565b90565b61007281610066565b0361007957565b5f80fd5b9050359061008a82610069565b565b909160c0828403126100eb576100a4835f8401610057565b926100b2816020850161007d565b926100c0826040830161007d565b926100e86100d1846060850161007d565b936100df816080860161007d565b9360a00161007d565b90565b61003c565b6100f990610066565b9052565b9190610110905f602085019401906100f0565b565b346101495761014561013461012836600461008c565b949390939291926102cd565b61013c610032565b918291826100fd565b0390f35b610038565b5f80fd5b5f90565b90565b90565b61017061016b61017592610156565b610159565b610040565b90565b634e487b7160e01b5f52601160045260245ffd5b61019b6101a191939293610066565b92610066565b82039182116101ac57565b610178565b6101ba90610040565b600160ff1b81146101ca575f0390565b610178565b6101e36101de6101e892610040565b610159565b610066565b90565b90565b6102026101fd610207926101eb565b610159565b610066565b90565b61021b670de0b6b3a76400006101ee565b90565b61022d61023391939293610066565b92610066565b9161023f838202610066565b92818404149015171561024e57565b610178565b90565b61026a61026561026f92610253565b610159565b610066565b90565b634e487b7160e01b5f52601260045260245ffd5b61029261029891610066565b91610066565b9081156102a3570490565b610272565b6102b76102bd91939293610066565b92610066565b82018092116102c857565b610178565b61039f6103916103a5939461038b61037b61036d6103ab996103b09c9b6102f2610152565b506102fb610152565b508061030f61030984610066565b91610066565b1180610448575b801561040e575b5f146103d057508b6103386103328392610066565b91610066565b115f146103c15761034a908c9061018c565b5b965b8061036061035a5f61015c565b91610040565b135f146103b3575b6101cf565b61037561020a565b9061021e565b916103866002610256565b61021e565b90610286565b9161039a61020a565b61021e565b906102a8565b9061021e565b610286565b90565b6103bc906101b1565b610368565b6103cb908c61018c565b61034b565b90508b6103e66103e08392610066565b91610066565b115f146103ff576103f8908c9061018c565b5b9661034d565b610409908c61018c565b6103f9565b508061042261041c84610066565b91610066565b108061042e575b61031d565b508861044261043c5f61015c565b91610040565b12610429565b508861045c6104565f61015c565b91610040565b1361031656fea264697066735822122041b438566ee07f62bf2e482ee8f5be178546797fb9112b9ffccffcbb0e2c0ce364736f6c634300081e0033","linkReferences":{}},"methodIdentifiers":{"computeFees(int256,uint256,uint256,uint256,uint256,uint256)":"bcd08238"},"id":62}